{
  "transactions": [
    {
      "hash": "0x67d40d19afec7e19fa2556b9651e345432f068ba9f574ef10a5305ca8496f9e4",
      "transactionType": "CREATE",
      "contractName": "DeckHub",
      "contractAddress": "0xc691129F7235863c6b19d0Ac005142688a4D8502",
      "function": null,
      "arguments": null,
      "transaction": {
        "type": "0x02",
        "from": "0xb47a9b6f062c33ed78630478dff9056687f840f2",
        "gas": "0x6eaa2",
        "value": "0x0",
        "data": "0x6080806040523461001657610558908161001b8239f35b5f80fdfe600436101561000c575f80fd5b5f3560e01c6332c02a141461001f575f80fd5b34610547576040366003190112610547576004356001600160a01b0381168103610547577f6080601f61042138819003918201601f19168301916001600160401b038311845f527f8410176100605780849260209460405283398101031261005c575160016001606020527fa01b038116810361005c576001556040516103ac90816100758239f35b5f80fd6040527f5b634e487b7160e01b5f52604160045260245ffdfe60806040526004361015616060527e15575b3661035257005b5f3560e01c80637a8ca61514610074578063a3d6bd6080527fe91461006f578063b0e45f281461006a578063c08eaf2814610065578063d36360a0527f22cd146100605763fba34ed10361000e57610312565b610251565b610204565b60c0527f610156565b6100b4565b3461009a575f36600319011261009a5760015460016060e0527f0160a01b03166080908152602090f35b5f80fd5b600435906001600160a01b03610100527f8216820361009a57565b604036600319011261009a576100c861009e565b6024610120527f35906001600160401b039081831161009a573660238401121561009a57826004610140527f013591821161009a57366024838501011161009a57815f809392819360246001610160527f5433149701833734905af1163d5f803e610122573d5ffd5b3d5ff35b9181601f610180527f8401121561009a578235916001600160401b03831161009a57602080850194846101a0527f60051b01011161009a57565b60408060031936011261009a576001600160401b6101c0527f039060043582811161009a57610184903690600401610126565b9190926024356101e0527f90811161009a5761019f903690600401610126565b6001949194543314908414610200527f161561009a5760059290921b8201915b8281036101c357005b8035843590805f610220527f5281845f20555f805160206103808339815191525f80a3602093840193016101610240527fba565b600435906001600160e01b03198216820361009a57565b604036600319610260527f011261009a576102186101ed565b602435906001600160a01b03821682036100610280527f9a57600154330361009a57805f528160405f20555f80516020610380833981516102a0527f91525f80a3005b606036600319011261009a576001600160401b0360043581816102c0527f1161009a5761027d903690600401610126565b919060243582811161009a57616102e0527f0297903690600401610126565b909260443590811161009a576102b490929192610300527f3690600401610126565b919094600154331482959487938360051b0194831492610320527f141616945b8285036102e157856102df575f80fd5b005b909192939482358201610340527f9081359182915f806020958695869586018337818b358d355af1169701950193610360527f9201906102cf565b3461009a57602036600319011261009a576001600160e01b610380527f03196103346101ed565b165f525f602052602060018060a01b0360405f2054166103a0527f604051908152f35b63ffffffff60e01b5f35165f5260405f2054365f80375f806103c0527f3681845af4901515163d5f803e610122573d5ffdfe2c0b629fc2b386c229783b6103e0527f88b245e8730c1397b78e4dd4a43cd7aafdf1b39f12a164736f6c63430008180061040052600560f91b61042052610421526024356104415f80f580156105475780337f09e48df7857bd0c1e0d31bb8a85d42cf1874817895f171c917f6ee2cea73ec205f80a35f5260205ff35b5f80fdfea164736f6c6343000818000a",
        "nonce": "0xaa",
        "accessList": []
      },
      "additionalContracts": [],
      "isFixedGasLimit": false
    },
    {
      "hash": "0x679e1e54d44888212bec14bd8ddccc9f5301b463cc339ffc4c650d484620da64",
      "transactionType": "CALL",
      "contractName": "DeckHub",
      "contractAddress": "0xc691129F7235863c6b19d0Ac005142688a4D8502",
      "function": "deploy(address,bytes32)",
      "arguments": [
        "0xb47A9B6F062c33ED78630478dFf9056687F840f2",
        "0x0000000000000000000000000000000000000000000000000000000000000045"
      ],
      "transaction": {
        "type": "0x02",
        "from": "0xb47a9b6f062c33ed78630478dff9056687f840f2",
        "to": "0xc691129f7235863c6b19d0ac005142688a4d8502",
        "gas": "0x59ddd",
        "value": "0x0",
        "data": "0x32c02a14000000000000000000000000b47a9b6f062c33ed78630478dff9056687f840f20000000000000000000000000000000000000000000000000000000000000045",
        "nonce": "0xab",
        "accessList": []
      },
      "additionalContracts": [
        {
          "transactionType": "CREATE2",
          "address": "0xF3588d24E4d6C765b9dC41c3e594a38551F8F2c2",
          "initCode": "0x6080601f61042138819003918201601f19168301916001600160401b038311848410176100605780849260209460405283398101031261005c57516001600160a01b038116810361005c576001556040516103ac90816100758239f35b5f80fd5b634e487b7160e01b5f52604160045260245ffdfe60806040526004361015610015575b3661035257005b5f3560e01c80637a8ca61514610074578063a3d6bde91461006f578063b0e45f281461006a578063c08eaf2814610065578063d36322cd146100605763fba34ed10361000e57610312565b610251565b610204565b610156565b6100b4565b3461009a575f36600319011261009a576001546001600160a01b03166080908152602090f35b5f80fd5b600435906001600160a01b038216820361009a57565b604036600319011261009a576100c861009e565b602435906001600160401b039081831161009a573660238401121561009a57826004013591821161009a57366024838501011161009a57815f8093928193602460015433149701833734905af1163d5f803e610122573d5ffd5b3d5ff35b9181601f8401121561009a578235916001600160401b03831161009a576020808501948460051b01011161009a57565b60408060031936011261009a576001600160401b039060043582811161009a57610184903690600401610126565b91909260243590811161009a5761019f903690600401610126565b6001949194543314908414161561009a5760059290921b8201915b8281036101c357005b8035843590805f5281845f20555f805160206103808339815191525f80a3602093840193016101ba565b600435906001600160e01b03198216820361009a57565b604036600319011261009a576102186101ed565b602435906001600160a01b038216820361009a57600154330361009a57805f528160405f20555f805160206103808339815191525f80a3005b606036600319011261009a576001600160401b0360043581811161009a5761027d903690600401610126565b919060243582811161009a57610297903690600401610126565b909260443590811161009a576102b4909291923690600401610126565b919094600154331482959487938360051b0194831492141616945b8285036102e157856102df575f80fd5b005b9091929394823582019081359182915f806020958695869586018337818b358d355af11697019501939201906102cf565b3461009a57602036600319011261009a576001600160e01b03196103346101ed565b165f525f602052602060018060a01b0360405f205416604051908152f35b63ffffffff60e01b5f35165f5260405f2054365f80375f803681845af4901515163d5f803e610122573d5ffdfe2c0b629fc2b386c229783b88b245e8730c1397b78e4dd4a43cd7aafdf1b39f12a164736f6c6343000818000a000000000000000000000000b47a9b6f062c33ed78630478dff9056687f840f2"
        }
      ],
      "isFixedGasLimit": false
    },
    {
      "hash": "0xb9bfb40c334b0311705d2319be49500257f12d4eb5c90672c041f952af60d72e",
      "transactionType": "CREATE",
      "contractName": "CreatorMod",
      "contractAddress": "0xde2AC71F9c9d86487935fFefdD84d9c5FE97102a",
      "function": null,
      "arguments": null,
      "transaction": {
        "type": "0x02",
        "from": "0xb47a9b6f062c33ed78630478dff9056687f840f2",
        "gas": "0x2ab15",
        "value": "0x0",
        "data": "0x6080806040523461001657610178908161001b8239f35b5f80fdfe60806040526004361015610011575f80fd5b5f3560e01c80635c3f5cbe14610044578063d75755b11461003f5763fd7230d61461003a575f80fd5b610124565b6100d4565b346100a35760403660031901126100a3576024356001600160401b0381116100a3576100749036906004016100a7565b80915f375f90812060405260043560209081523060ff60a01b1782526055600b206001600160a01b0316825290f35b5f80fd5b9181601f840112156100a3578235916001600160401b0383116100a357602083818601950101116100a357565b60603660031901126100a3576044356001600160401b0381116100a3576100ff9036906004016100a7565b806001543314925f37600435905f602435f5805f5215151661011f575f80fd5b60205ff35b60403660031901126100a3576024356001600160401b0381116100a35761014f9036906004016100a7565b806001543314925f375f600435f0805f5215151661011f575f80fdfea164736f6c6343000818000a",
        "nonce": "0xac",
        "accessList": []
      },
      "additionalContracts": [],
      "isFixedGasLimit": false
    },
    {
      "hash": "0x3fb2b71215fd5b8e2ddb4fb9197b609907a25ccb5acd71ce6613b8c9f02879ce",
      "transactionType": "CALL",
      "contractName": "EtherDeckMk2",
      "contractAddress": "0xF3588d24E4d6C765b9dC41c3e594a38551F8F2c2",
      "function": "setDispatch(bytes4,address)",
      "arguments": [
        "0xd75755b100000000000000000000000000000000000000000000000000000000",
        "0xde2AC71F9c9d86487935fFefdD84d9c5FE97102a"
      ],
      "transaction": {
        "type": "0x02",
        "from": "0xb47a9b6f062c33ed78630478dff9056687f840f2",
        "to": "0xf3588d24e4d6c765b9dc41c3e594a38551f8f2c2",
        "gas": "0x110b7",
        "value": "0x0",
        "data": "0xc08eaf28d75755b100000000000000000000000000000000000000000000000000000000000000000000000000000000de2ac71f9c9d86487935ffefdd84d9c5fe97102a",
        "nonce": "0xad",
        "accessList": []
      },
      "additionalContracts": [],
      "isFixedGasLimit": false
    },
    {
      "hash": "0x7581d0c5ff43e3d740db82e15fc0a22e50a8d6ca9c3626944dfe46bce12e49b9",
      "transactionType": "CALL",
      "contractName": "EtherDeckMk2",
      "contractAddress": "0xF3588d24E4d6C765b9dC41c3e594a38551F8F2c2",
      "function": null,
      "arguments": null,
      "transaction": {
        "type": "0x02",
        "from": "0xb47a9b6f062c33ed78630478dff9056687f840f2",
        "to": "0xf3588d24e4d6c765b9dc41c3e594a38551f8f2c2",
        "gas": "0x6994b",
        "value": "0x0",
        "data": "0xd75755b1e54da2a64d37c16ecbb500da46dfdca19919dda56d46d37940a00184febf63970000000000000000000000000000000000000000000000000000000000000000000000000000000000000000000000000000000000000000000000000000006000000000000000000000000000000000000000000000000000000000000004b160803461006057601f61049138819003918201601f19168301916001600160401b038311848410176100645780849260209460405283398101031261006057516001600160a01b0381168103610060575f5560405161041890816100798239f35b5f80fd5b634e487b7160e01b5f52604160045260245ffdfe60806040526004361015610011575f80fd5b5f3560e01c80633078db6c1461006457806332434a2e1461005f5780634713078d1461005a578063bf7e214f146100555763ddbbc35c14610050575f80fd5b610375565b61031c565b61020d565b6100c8565b346100ae5760203660031901126100ae5761007d6100b2565b5f5433036100ae57805f557f5b0c3a2a09ee4c3913f0ea177afea723d04e080d3fff121bf6dab07c9bc1ca3d5f80a2005b5f80fd5b600435906001600160a01b03821682036100ae57565b346100ae576040806003193601126100ae576100e26100b2565b90602435906001600160401b038083116100ae57366023840112156100ae5782600401359081116100ae5736602482850101116100ae57602081105f54331416156100ae5760247f53847476bca505044595421c78566864f28f19c3f4597502069d145bbe5a62b793855f52600260205201358160011b8117835f205560205f528160205280835260018383015284602083018420558252151560051b015fa2005b634e487b7160e01b5f52604160045260245ffd5b601f909101601f19168101906001600160401b038211908210176101bb57604052565b610184565b5f5b8381106101d15750505f910152565b81810151838201526020016101c2565b6040916020825261020181518092816020860152602086860191016101c0565b601f01601f1916010190565b346100ae576020806003193601126100ae576001600160a01b0361022f6100b2565b165f52600260205260405f2090604051915f9181549060018260011c9360018416938415610312575b6020861085146102fe5785885260208801949081156102dd575060011461029a575b6102968761028a81890382610198565b604051918291826101e1565b0390f35b6102ac9195509392935f5260205f2090565b935f945b8386106102cc575050509101905061028a826102965f8061027a565b8054858701529482019481016102b0565b60ff191685525050505090151560051b01905061028a826102965f8061027a565b634e487b7160e01b5f52602260045260245ffd5b94607f1694610258565b346100ae575f3660031901126100ae575f546040516001600160a01b039091168152602090f35b602061035860405192838151938492016101c0565b60019082019081528190036020019020546001600160a01b031690565b346100ae5760203660031901126100ae576001600160401b036004358181116100ae57366023820112156100ae5780600401359182116101bb576040516103c6601f8401601f191660200182610198565b82815236602484840101116100ae575f6020846102969560246103f196018386013783010152610343565b6040516001600160a01b039091168152908190602082019056fea164736f6c6343000818000a000000000000000000000000f3588d24e4d6c765b9dc41c3e594a38551f8f2c2000000000000000000000000000000",
        "nonce": "0xae",
        "accessList": []
      },
      "additionalContracts": [
        {
          "transactionType": "CREATE2",
          "address": "0x2E79E8C87F496cD2D1fe0E32Fcfe945660501db3",
          "initCode": "0x60803461006057601f61049138819003918201601f19168301916001600160401b038311848410176100645780849260209460405283398101031261006057516001600160a01b0381168103610060575f5560405161041890816100798239f35b5f80fd5b634e487b7160e01b5f52604160045260245ffdfe60806040526004361015610011575f80fd5b5f3560e01c80633078db6c1461006457806332434a2e1461005f5780634713078d1461005a578063bf7e214f146100555763ddbbc35c14610050575f80fd5b610375565b61031c565b61020d565b6100c8565b346100ae5760203660031901126100ae5761007d6100b2565b5f5433036100ae57805f557f5b0c3a2a09ee4c3913f0ea177afea723d04e080d3fff121bf6dab07c9bc1ca3d5f80a2005b5f80fd5b600435906001600160a01b03821682036100ae57565b346100ae576040806003193601126100ae576100e26100b2565b90602435906001600160401b038083116100ae57366023840112156100ae5782600401359081116100ae5736602482850101116100ae57602081105f54331416156100ae5760247f53847476bca505044595421c78566864f28f19c3f4597502069d145bbe5a62b793855f52600260205201358160011b8117835f205560205f528160205280835260018383015284602083018420558252151560051b015fa2005b634e487b7160e01b5f52604160045260245ffd5b601f909101601f19168101906001600160401b038211908210176101bb57604052565b610184565b5f5b8381106101d15750505f910152565b81810151838201526020016101c2565b6040916020825261020181518092816020860152602086860191016101c0565b601f01601f1916010190565b346100ae576020806003193601126100ae576001600160a01b0361022f6100b2565b165f52600260205260405f2090604051915f9181549060018260011c9360018416938415610312575b6020861085146102fe5785885260208801949081156102dd575060011461029a575b6102968761028a81890382610198565b604051918291826101e1565b0390f35b6102ac9195509392935f5260205f2090565b935f945b8386106102cc575050509101905061028a826102965f8061027a565b8054858701529482019481016102b0565b60ff191685525050505090151560051b01905061028a826102965f8061027a565b634e487b7160e01b5f52602260045260245ffd5b94607f1694610258565b346100ae575f3660031901126100ae575f546040516001600160a01b039091168152602090f35b602061035860405192838151938492016101c0565b60019082019081528190036020019020546001600160a01b031690565b346100ae5760203660031901126100ae576001600160401b036004358181116100ae57366023820112156100ae5780600401359182116101bb576040516103c6601f8401601f191660200182610198565b82815236602484840101116100ae575f6020846102969560246103f196018386013783010152610343565b6040516001600160a01b039091168152908190602082019056fea164736f6c6343000818000a000000000000000000000000f3588d24e4d6c765b9dc41c3e594a38551f8f2c2"
        }
      ],
      "isFixedGasLimit": false
    },
    {
      "hash": "0x337c1f33e25363d35e848ead2402cb70b02f41c560de908ea1da19d2de76d2cc",
      "transactionType": "CALL",
      "contractName": "EtherDeckMk2",
      "contractAddress": "0xF3588d24E4d6C765b9dC41c3e594a38551F8F2c2",
      "function": null,
      "arguments": null,
      "transaction": {
        "type": "0x02",
        "from": "0xb47a9b6f062c33ed78630478dff9056687f840f2",
        "to": "0xf3588d24e4d6c765b9dc41c3e594a38551f8f2c2",
        "gas": "0x3d999",
        "value": "0x0",
        "data": "0xd75755b1e54da2a64d37c16ecbb500da46dfdca19919dda56d46d37940a00184febf639700000000000000000000000000000000000000000000000000000000000000000000000000000000000000000000000000000000000000000000000000000060000000000000000000000000000000000000000000000000000000000000021960808060405234610016576101fe908161001b8239f35b5f80fdfe60806040526004361015610011575f80fd5b5f3560e01c80634322c72914610044578063a8fac34b1461003f5763affed0e01461003a575f80fd5b6101ab565b61014d565b60803660031901126101065761005861010a565b6001600160401b0360243581811161010657610078903690600401610120565b604435928311610106575f8093928180808061009981983690600401610120565b90958860208460643594808b83378160015afa600154855114169184378b895234896020015281896040015260015f805160206101d283398151915291825498898c60600152358b6080018620141697019055335af1169434905af1163d5f803e610102573d5ffd5b3d5ff35b5f80fd5b600435906001600160a01b038216820361010657565b9181601f84011215610106578235916001600160401b038311610106576020838186019501011161010657565b60603660031901126101065761016161010a565b6024356001600160401b038111610106575f8061018381933690600401610120565b919082600154331491833781808080604435415af1169434905af1163d5f803e610102573d5ffd5b34610106575f366003190112610106575f805160206101d2833981519152545f5260205ff3fe35cc143ea48486ca62296c4e48389c5f5abbd342fc1b39ad2da3d145f4b0d6bba164736f6c6343000818000a00000000000000",
        "nonce": "0xaf",
        "accessList": []
      },
      "additionalContracts": [
        {
          "transactionType": "CREATE2",
          "address": "0xA82706F72c8ca19C5aCBF93cddC9534A28B0ADF9",
          "initCode": "0x60808060405234610016576101fe908161001b8239f35b5f80fdfe60806040526004361015610011575f80fd5b5f3560e01c80634322c72914610044578063a8fac34b1461003f5763affed0e01461003a575f80fd5b6101ab565b61014d565b60803660031901126101065761005861010a565b6001600160401b0360243581811161010657610078903690600401610120565b604435928311610106575f8093928180808061009981983690600401610120565b90958860208460643594808b83378160015afa600154855114169184378b895234896020015281896040015260015f805160206101d283398151915291825498898c60600152358b6080018620141697019055335af1169434905af1163d5f803e610102573d5ffd5b3d5ff35b5f80fd5b600435906001600160a01b038216820361010657565b9181601f84011215610106578235916001600160401b038311610106576020838186019501011161010657565b60603660031901126101065761016161010a565b6024356001600160401b038111610106575f8061018381933690600401610120565b919082600154331491833781808080604435415af1169434905af1163d5f803e610102573d5ffd5b34610106575f366003190112610106575f805160206101d2833981519152545f5260205ff3fe35cc143ea48486ca62296c4e48389c5f5abbd342fc1b39ad2da3d145f4b0d6bba164736f6c6343000818000a"
        }
      ],
      "isFixedGasLimit": false
    },
    {
      "hash": "0xe385ce8b626c0178429cb0ba8c2cbd1aeab0c1e42f4f4f33e87a89fb9e130f1b",
      "transactionType": "CALL",
      "contractName": "EtherDeckMk2",
      "contractAddress": "0xF3588d24E4d6C765b9dC41c3e594a38551F8F2c2",
      "function": null,
      "arguments": null,
      "transaction": {
        "type": "0x02",
        "from": "0xb47a9b6f062c33ed78630478dff9056687f840f2",
        "to": "0xf3588d24e4d6c765b9dc41c3e594a38551f8f2c2",
        "gas": "0x30566",
        "value": "0x0",
        "data": "0xd75755b1e54da2a64d37c16ecbb500da46dfdca19919dda56d46d37940a00184febf63970000000000000000000000000000000000000000000000000000000000000000000000000000000000000000000000000000000000000000000000000000006000000000000000000000000000000000000000000000000000000000000001936080806040523461001657610178908161001b8239f35b5f80fdfe60806040526004361015610011575f80fd5b5f3560e01c80635c3f5cbe14610044578063d75755b11461003f5763fd7230d61461003a575f80fd5b610124565b6100d4565b346100a35760403660031901126100a3576024356001600160401b0381116100a3576100749036906004016100a7565b80915f375f90812060405260043560209081523060ff60a01b1782526055600b206001600160a01b0316825290f35b5f80fd5b9181601f840112156100a3578235916001600160401b0383116100a357602083818601950101116100a357565b60603660031901126100a3576044356001600160401b0381116100a3576100ff9036906004016100a7565b806001543314925f37600435905f602435f5805f5215151661011f575f80fd5b60205ff35b60403660031901126100a3576024356001600160401b0381116100a35761014f9036906004016100a7565b806001543314925f375f600435f0805f5215151661011f575f80fdfea164736f6c6343000818000a00000000000000000000000000",
        "nonce": "0xb0",
        "accessList": []
      },
      "additionalContracts": [
        {
          "transactionType": "CREATE2",
          "address": "0x131e34C36A8A581E06207a40A552f54f569E6580",
          "initCode": "0x6080806040523461001657610178908161001b8239f35b5f80fdfe60806040526004361015610011575f80fd5b5f3560e01c80635c3f5cbe14610044578063d75755b11461003f5763fd7230d61461003a575f80fd5b610124565b6100d4565b346100a35760403660031901126100a3576024356001600160401b0381116100a3576100749036906004016100a7565b80915f375f90812060405260043560209081523060ff60a01b1782526055600b206001600160a01b0316825290f35b5f80fd5b9181601f840112156100a3578235916001600160401b0383116100a357602083818601950101116100a357565b60603660031901126100a3576044356001600160401b0381116100a3576100ff9036906004016100a7565b806001543314925f37600435905f602435f5805f5215151661011f575f80fd5b60205ff35b60403660031901126100a3576024356001600160401b0381116100a35761014f9036906004016100a7565b806001543314925f375f600435f0805f5215151661011f575f80fdfea164736f6c6343000818000a"
        }
      ],
      "isFixedGasLimit": false
    },
    {
      "hash": "0xc11b49eb924ecf72b6219131c55ccbb9f93c358b75ca9d633822063cd8b73c1a",
      "transactionType": "CALL",
      "contractName": "EtherDeckMk2",
      "contractAddress": "0xF3588d24E4d6C765b9dC41c3e594a38551F8F2c2",
      "function": null,
      "arguments": null,
      "transaction": {
        "type": "0x02",
        "from": "0xb47a9b6f062c33ed78630478dff9056687f840f2",
        "to": "0xf3588d24e4d6c765b9dc41c3e594a38551f8f2c2",
        "gas": "0x50a4b",
        "value": "0x0",
        "data": "0xd75755b1e54da2a64d37c16ecbb500da46dfdca19919dda56d46d37940a00184febf639700000000000000000000000000000000000000000000000000000000000000000000000000000000000000000000000000000000000000000000000000000060000000000000000000000000000000000000000000000000000000000000031060808060405234610016576102f5908161001b8239f35b5f80fdfe60806040526004361015610011575f80fd5b5f3560e01c80635cffe9de14610054578063613255ab1461004f578063d9d98ce41461004a5763ff990ece14610045575f80fd5b610197565b610143565b6100e8565b346100b85760803660031901126100b85761006d6100bc565b6100756100d2565b6001600160401b03916064358381116100b857366023820112156100b85780600401359384116100b85736602485830101116100b85760240191604435916101e0565b5f80fd5b600435906001600160a01b03821682036100b857565b602435906001600160a01b03821682036100b857565b346100b85760203660031901126100b8576101016100bc565b805f525f805160206102c983398151915260205260205f60248160408120541515946370a0823160e01b8252306004525afa1661013e5760206080f35b60205ff35b346100b85760403660031901126100b85761015c6100bc565b602435905f525f805160206102c983398151915260205260405f205490818082029161271083045f528015920414179015151661013e575f80fd5b346100b85760403660031901126100b8576101b06100bc565b602435906127108211600154331415176100b8575f525f805160206102c983398151915260205260405f20555f80f35b935f606492602095829593839463a9059cbb60e01b85528960045280602452888560448180885af185513d1517166323e30c8b60e01b865233600452846024525f805160206102c9833981519152604452604060242054908a878d818086880298806127108b049b8c8b019c8b60445260645260a06084528160a45260c43760c401925af193828487101594801592041417911515161616167f439148f0bbc682ca079e46d6e2c2f0c1e3b820f1a291b069d8882abf8cf18dd984511416976323b872dd60e01b8452600452306024526044525af1165f513d15171660015f5261013e575f80fdfeb03bc4f1379300f4f940d278a38ba81c82232501ae1614184a0ce60133d2e677a164736f6c6343000818000a00000000000000000000000000000000",
        "nonce": "0xb1",
        "accessList": []
      },
      "additionalContracts": [
        {
          "transactionType": "CREATE2",
          "address": "0xa001CDa77c79dA06b9f74d23c78Ab9f68e2462AC",
          "initCode": "0x60808060405234610016576102f5908161001b8239f35b5f80fdfe60806040526004361015610011575f80fd5b5f3560e01c80635cffe9de14610054578063613255ab1461004f578063d9d98ce41461004a5763ff990ece14610045575f80fd5b610197565b610143565b6100e8565b346100b85760803660031901126100b85761006d6100bc565b6100756100d2565b6001600160401b03916064358381116100b857366023820112156100b85780600401359384116100b85736602485830101116100b85760240191604435916101e0565b5f80fd5b600435906001600160a01b03821682036100b857565b602435906001600160a01b03821682036100b857565b346100b85760203660031901126100b8576101016100bc565b805f525f805160206102c983398151915260205260205f60248160408120541515946370a0823160e01b8252306004525afa1661013e5760206080f35b60205ff35b346100b85760403660031901126100b85761015c6100bc565b602435905f525f805160206102c983398151915260205260405f205490818082029161271083045f528015920414179015151661013e575f80fd5b346100b85760403660031901126100b8576101b06100bc565b602435906127108211600154331415176100b8575f525f805160206102c983398151915260205260405f20555f80f35b935f606492602095829593839463a9059cbb60e01b85528960045280602452888560448180885af185513d1517166323e30c8b60e01b865233600452846024525f805160206102c9833981519152604452604060242054908a878d818086880298806127108b049b8c8b019c8b60445260645260a06084528160a45260c43760c401925af193828487101594801592041417911515161616167f439148f0bbc682ca079e46d6e2c2f0c1e3b820f1a291b069d8882abf8cf18dd984511416976323b872dd60e01b8452600452306024526044525af1165f513d15171660015f5261013e575f80fdfeb03bc4f1379300f4f940d278a38ba81c82232501ae1614184a0ce60133d2e677a164736f6c6343000818000a"
        }
      ],
      "isFixedGasLimit": false
    },
    {
      "hash": "0xa1c61360dc8bf1afec0bc22ff933c474ecac661acc00b98d8dd855ab3fac0401",
      "transactionType": "CALL",
      "contractName": "EtherDeckMk2",
      "contractAddress": "0xF3588d24E4d6C765b9dC41c3e594a38551F8F2c2",
      "function": null,
      "arguments": null,
      "transaction": {
        "type": "0x02",
        "from": "0xb47a9b6f062c33ed78630478dff9056687f840f2",
        "to": "0xf3588d24e4d6c765b9dc41c3e594a38551f8f2c2",
        "gas": "0x2e008",
        "value": "0x0",
        "data": "0xd75755b1e54da2a64d37c16ecbb500da46dfdca19919dda56d46d37940a00184febf63970000000000000000000000000000000000000000000000000000000000000000000000000000000000000000000000000000000000000000000000000000006000000000000000000000000000000000000000000000000000000000000001736080806040523461001657610158908161001b8239f35b5f80fdfe60806040526004361015610011575f80fd5b5f3560e01c8063183ff085146100445780631bee0a9c1461003f5763d151cc811461003a575f80fd5b6100d0565b610081565b3461007d575f36600319011261007d57600154330361007d575f8051602061012c83398151915280546001600160401b03191642179055005b5f80fd5b3461007d575f36600319011261007d575f8051602061012c8339815191528054906001600160401b038216604083901c63ffffffff16908101421090151761007d575f9160601c600155555f80f35b3461007d57604036600319011261007d576004356001600160a01b038116810361007d576024359063ffffffff8216820361007d57600154330361007d5760601b9060401b1742175f8051602061012c833981519152555f80f3fe08c143f31a8b0ea787fb1fb8e637c8434eafb594d63cf7d1b812d10091c0603ca164736f6c6343000818000a00000000000000000000000000",
        "nonce": "0xb2",
        "accessList": []
      },
      "additionalContracts": [
        {
          "transactionType": "CREATE2",
          "address": "0x462b133D3E4C24c405DaCff1AA562b92D0fb47fD",
          "initCode": "0x6080806040523461001657610158908161001b8239f35b5f80fdfe60806040526004361015610011575f80fd5b5f3560e01c8063183ff085146100445780631bee0a9c1461003f5763d151cc811461003a575f80fd5b6100d0565b610081565b3461007d575f36600319011261007d57600154330361007d575f8051602061012c83398151915280546001600160401b03191642179055005b5f80fd5b3461007d575f36600319011261007d575f8051602061012c8339815191528054906001600160401b038216604083901c63ffffffff16908101421090151761007d575f9160601c600155555f80f35b3461007d57604036600319011261007d576004356001600160a01b038116810361007d576024359063ffffffff8216820361007d57600154330361007d5760601b9060401b1742175f8051602061012c833981519152555f80f3fe08c143f31a8b0ea787fb1fb8e637c8434eafb594d63cf7d1b812d10091c0603ca164736f6c6343000818000a"
        }
      ],
      "isFixedGasLimit": false
    },
    {
      "hash": "0x8ab9a699ccc6a8cbebf8fb37425d939f6b2e5bf17f02ff8ccb11539787ba5c41",
      "transactionType": "CALL",
      "contractName": "EtherDeckMk2",
      "contractAddress": "0xF3588d24E4d6C765b9dC41c3e594a38551F8F2c2",
      "function": null,
      "arguments": null,
      "transaction": {
        "type": "0x02",
        "from": "0xb47a9b6f062c33ed78630478dff9056687f840f2",
        "to": "0xf3588d24e4d6c765b9dc41c3e594a38551f8f2c2",
        "gas": "0x19248",
        "value": "0x0",
        "data": "0xd75755b1e54da2a64d37c16ecbb500da46dfdca19919dda56d46d37940a00184febf639700000000000000000000000000000000000000000000000000000000000000000000000000000000000000000000000000000000000000000000000000000060000000000000000000000000000000000000000000000000000000000000003f608080604052346013576027908160188239f35b5f80fdfe36156018575f80356001600160e01b0319168152602090f35b00fea164736f6c6343000818000a00",
        "nonce": "0xb3",
        "accessList": []
      },
      "additionalContracts": [
        {
          "transactionType": "CREATE2",
          "address": "0x8b51C150d6899aa8efeD1E24D2489426c47C5653",
          "initCode": "0x608080604052346013576027908160188239f35b5f80fdfe36156018575f80356001600160e01b0319168152602090f35b00fea164736f6c6343000818000a"
        }
      ],
      "isFixedGasLimit": false
    },
    {
      "hash": "0x264d3667a958f67c6bbfb8646c6ff1fbad96c8135f90f785cafb9db36e7bf4f6",
      "transactionType": "CALL",
      "contractName": "EtherDeckMk2",
      "contractAddress": "0xF3588d24E4d6C765b9dC41c3e594a38551F8F2c2",
      "function": null,
      "arguments": null,
      "transaction": {
        "type": "0x02",
        "from": "0xb47a9b6f062c33ed78630478dff9056687f840f2",
        "to": "0xf3588d24e4d6c765b9dc41c3e594a38551f8f2c2",
        "gas": "0x534d1",
        "value": "0x0",
        "data": "0xd75755b1e54da2a64d37c16ecbb500da46dfdca19919dda56d46d37940a00184febf63970000000000000000000000000000000000000000000000000000000000000000000000000000000000000000000000000000000000000000000000000000006000000000000000000000000000000000000000000000000000000000000003726080806040523461001657610357908161001b8239f35b5f80fdfe6080604052600480361015610012575f80fd5b5f3560e01c90816360f9262314610067575080639025e7eb14610062578063a538280b1461005d578063abd8e6f6146100585763c5af7a5714610053575f80fd5b6102f0565b610291565b61022a565b61014e565b346100d05761007536610104565b60015463558a729760e01b5f90815260245233149083141693909160051b8301905b8184036100a957846100a7575f80fd5b005b9091929383358252602080916044908282805f808c355af116905116950193019190610097565b5f80fd5b9181601f840112156100d0578235916001600160401b0383116100d0576020808501948460051b0101116100d057565b60406003198201126100d0576001600160401b03916004358381116100d05782610130916004016100d4565b939093926024359182116100d05761014a916004016100d4565b9091565b346100d05760603660031901126100d05760046001600160401b0381358181116100d0576101809036906004016100d4565b92602480358481116100d05761019a9036906004016100d4565b9290946044359081116100d057838786856101ba8a9536906004016100d4565b939094600154331490849796948360051b01958314921416169563426a849360e01b5f525f6044525b8386036101f357866100a7575f80fd5b9091929394955f9084358352863584526020828193928280948c60649485928392355af191519116169801960194930191906101e3565b346100d05761023836610104565b60015463095ea7b360e01b5f908152602452331490831416929160051b82015b80830361026857836100a7575f80fd5b9091928235600452602080916044908282805f808b355af11690513d1517169401920190610258565b346100d05761029f36610104565b60015463a22cb46560e01b5f908152604452331490831416929160051b82015b8083036102cf57836100a7575f80fd5b90919282356004525f806064818088355af1169260208091019201906102bf565b346100d0576102fe36610104565b60015463095ea7b360e01b5f52331490831416929160051b82015b80830361032957836100a7575f80fd5b90919282356024525f806044818088355af11692602080910192019061031956fea164736f6c6343000818000a0000000000000000000000000000",
        "nonce": "0xb4",
        "accessList": []
      },
      "additionalContracts": [
        {
          "transactionType": "CREATE2",
          "address": "0x09f473F09bE2024B30c96D5C2D24A626aE053433",
          "initCode": "0x6080806040523461001657610357908161001b8239f35b5f80fdfe6080604052600480361015610012575f80fd5b5f3560e01c90816360f9262314610067575080639025e7eb14610062578063a538280b1461005d578063abd8e6f6146100585763c5af7a5714610053575f80fd5b6102f0565b610291565b61022a565b61014e565b346100d05761007536610104565b60015463558a729760e01b5f90815260245233149083141693909160051b8301905b8184036100a957846100a7575f80fd5b005b9091929383358252602080916044908282805f808c355af116905116950193019190610097565b5f80fd5b9181601f840112156100d0578235916001600160401b0383116100d0576020808501948460051b0101116100d057565b60406003198201126100d0576001600160401b03916004358381116100d05782610130916004016100d4565b939093926024359182116100d05761014a916004016100d4565b9091565b346100d05760603660031901126100d05760046001600160401b0381358181116100d0576101809036906004016100d4565b92602480358481116100d05761019a9036906004016100d4565b9290946044359081116100d057838786856101ba8a9536906004016100d4565b939094600154331490849796948360051b01958314921416169563426a849360e01b5f525f6044525b8386036101f357866100a7575f80fd5b9091929394955f9084358352863584526020828193928280948c60649485928392355af191519116169801960194930191906101e3565b346100d05761023836610104565b60015463095ea7b360e01b5f908152602452331490831416929160051b82015b80830361026857836100a7575f80fd5b9091928235600452602080916044908282805f808b355af11690513d1517169401920190610258565b346100d05761029f36610104565b60015463a22cb46560e01b5f908152604452331490831416929160051b82015b8083036102cf57836100a7575f80fd5b90919282356004525f806064818088355af1169260208091019201906102bf565b346100d0576102fe36610104565b60015463095ea7b360e01b5f52331490831416929160051b82015b80830361032957836100a7575f80fd5b90919282356024525f806044818088355af11692602080910192019061031956fea164736f6c6343000818000a"
        }
      ],
      "isFixedGasLimit": false
    },
    {
      "hash": "0x1b42e125ff76b3368369235e28a13b5683177dae5d615a2567bf271e1ba0f467",
      "transactionType": "CALL",
      "contractName": "EtherDeckMk2",
      "contractAddress": "0xF3588d24E4d6C765b9dC41c3e594a38551F8F2c2",
      "function": null,
      "arguments": null,
      "transaction": {
        "type": "0x02",
        "from": "0xb47a9b6f062c33ed78630478dff9056687f840f2",
        "to": "0xf3588d24e4d6c765b9dc41c3e594a38551f8f2c2",
        "gas": "0x2dd7c",
        "value": "0x0",
        "data": "0xd75755b1e54da2a64d37c16ecbb500da46dfdca19919dda56d46d37940a00184febf63970000000000000000000000000000000000000000000000000000000000000000000000000000000000000000000000000000000000000000000000000000006000000000000000000000000000000000000000000000000000000000000001716080806040523461001657610156908161001b8239f35b5f80fdfe60806040526004361015610011575f80fd5b5f3560e01c80633c02cebd146100345763df2d52071461002f575f80fd5b6100e6565b346100b25760403660031901126100b2576001600160401b036004358181116100b2576100659036906004016100b6565b90916024359081116100b25761007f9036906004016100b6565b8293919314600154331416156100b25780839260051b01905b8181036100a157005b823581355560209283019201610098565b5f80fd5b9181601f840112156100b2578235916001600160401b0383116100b2576020808501948460051b0101116100b257565b346100b2576020806003193601126100b2576004356001600160401b0381116100b2576101179036906004016100b6565b816040908260051b8094019260205f526020525b82810361013957836040015ff35b803554825290840190840161012b56fea164736f6c6343000818000a000000000000000000000000000000",
        "nonce": "0xb5",
        "accessList": []
      },
      "additionalContracts": [
        {
          "transactionType": "CREATE2",
          "address": "0xD82CF11f8DE80ca8107E60Fc188DB1448421D4E0",
          "initCode": "0x6080806040523461001657610156908161001b8239f35b5f80fdfe60806040526004361015610011575f80fd5b5f3560e01c80633c02cebd146100345763df2d52071461002f575f80fd5b6100e6565b346100b25760403660031901126100b2576001600160401b036004358181116100b2576100659036906004016100b6565b90916024359081116100b25761007f9036906004016100b6565b8293919314600154331416156100b25780839260051b01905b8181036100a157005b823581355560209283019201610098565b5f80fd5b9181601f840112156100b2578235916001600160401b0383116100b2576020808501948460051b0101116100b257565b346100b2576020806003193601126100b2576004356001600160401b0381116100b2576101179036906004016100b6565b816040908260051b8094019260205f526020525b82810361013957836040015ff35b803554825290840190840161012b56fea164736f6c6343000818000a"
        }
      ],
      "isFixedGasLimit": false
    },
    {
      "hash": "0xfe61ab0a851dbbd82e52484da376c9c8accf2f66296108fa4cab4e6636a30368",
      "transactionType": "CALL",
      "contractName": "EtherDeckMk2",
      "contractAddress": "0xF3588d24E4d6C765b9dC41c3e594a38551F8F2c2",
      "function": null,
      "arguments": null,
      "transaction": {
        "type": "0x02",
        "from": "0xb47a9b6f062c33ed78630478dff9056687f840f2",
        "to": "0xf3588d24e4d6c765b9dc41c3e594a38551f8f2c2",
        "gas": "0x6029c",
        "value": "0x0",
        "data": "0xd75755b1e54da2a64d37c16ecbb500da46dfdca19919dda56d46d37940a00184febf63970000000000000000000000000000000000000000000000000000000000000000000000000000000000000000000000000000000000000000000000000000006000000000000000000000000000000000000000000000000000000000000004226080806040523461001657610407908161001b8239f35b5f80fdfe60806040526004361015610011575f80fd5b5f3560e01c806351a8b74e146100645780638dc53fdf1461005f57806398a898971461005a578063adf55ae3146100555763c7cb661514610050575f80fd5b610381565b61030d565b61022b565b6101a0565b346100ec5761007236610120565b936001969195965433149088979496988360051b01958314938314921416161694637921219560e11b5f523060045260a06084525b8285036100b957856100b7575f80fd5b005b90919293948235602452843560445281356064525f8060c481808a355af1169460209081019481019392810191016100a7565b5f80fd5b9181601f840112156100ec578235916001600160401b0383116100ec576020808501948460051b0101116100ec57565b60806003198201126100ec576001600160401b03906004358281116100ec578161014c916004016100f0565b939093926024358181116100ec5783610167916004016100f0565b939093926044358381116100ec5782610182916004016100f0565b939093926064359182116100ec5761019c916004016100f0565b9091565b346100ec576101ae36610120565b936001969195965433149088979496988360051b019583149383149214161616946304ade6db60e11b5f525b8285036101ea57856100b7575f80fd5b90919293945f90833560045285356024528235604452602080838194938280958c60649485928392355af116905116980194019501910192919390926101da565b60403660031901126100ec576001600160401b036004358181116100ec576102579036906004016100f0565b916024359081116100ec576102709036906004016100f0565b6001543314908414169260051b82015b80830361029057836100b7575f80fd5b9091925f808080863588355af116926020809101920190610280565b9060606003198301126100ec576001600160401b036004358181116100ec57836102d8916004016100f0565b939093926024358381116100ec57826102f3916004016100f0565b939093926044359182116100ec5761019c916004016100f0565b346100ec5761031b366102ac565b916001959394919554331490849596948360051b0193831492141616936323b872dd60e01b5f52306004525b81840361035757846100b7575f80fd5b90919293813560245283356044525f806064818089355af116936020908101938101929101610347565b346100ec5761038f366102ac565b60015463a9059cbb60e01b5f52928514339093149290921691841491909116939260051b8301905b8184036103c757846100b7575f80fd5b909192938335600452813560245260208080926044908282805f808d355af191513d1517911616960194019291016103b756fea164736f6c6343000818000a000000000000000000000000000000000000000000000000000000000000",
        "nonce": "0xb6",
        "accessList": []
      },
      "additionalContracts": [
        {
          "transactionType": "CREATE2",
          "address": "0x21D9B7e84c8acF01898a41Ad0C39dDc2b1226142",
          "initCode": "0x6080806040523461001657610407908161001b8239f35b5f80fdfe60806040526004361015610011575f80fd5b5f3560e01c806351a8b74e146100645780638dc53fdf1461005f57806398a898971461005a578063adf55ae3146100555763c7cb661514610050575f80fd5b610381565b61030d565b61022b565b6101a0565b346100ec5761007236610120565b936001969195965433149088979496988360051b01958314938314921416161694637921219560e11b5f523060045260a06084525b8285036100b957856100b7575f80fd5b005b90919293948235602452843560445281356064525f8060c481808a355af1169460209081019481019392810191016100a7565b5f80fd5b9181601f840112156100ec578235916001600160401b0383116100ec576020808501948460051b0101116100ec57565b60806003198201126100ec576001600160401b03906004358281116100ec578161014c916004016100f0565b939093926024358181116100ec5783610167916004016100f0565b939093926044358381116100ec5782610182916004016100f0565b939093926064359182116100ec5761019c916004016100f0565b9091565b346100ec576101ae36610120565b936001969195965433149088979496988360051b019583149383149214161616946304ade6db60e11b5f525b8285036101ea57856100b7575f80fd5b90919293945f90833560045285356024528235604452602080838194938280958c60649485928392355af116905116980194019501910192919390926101da565b60403660031901126100ec576001600160401b036004358181116100ec576102579036906004016100f0565b916024359081116100ec576102709036906004016100f0565b6001543314908414169260051b82015b80830361029057836100b7575f80fd5b9091925f808080863588355af116926020809101920190610280565b9060606003198301126100ec576001600160401b036004358181116100ec57836102d8916004016100f0565b939093926024358381116100ec57826102f3916004016100f0565b939093926044359182116100ec5761019c916004016100f0565b346100ec5761031b366102ac565b916001959394919554331490849596948360051b0193831492141616936323b872dd60e01b5f52306004525b81840361035757846100b7575f80fd5b90919293813560245283356044525f806064818089355af116936020908101938101929101610347565b346100ec5761038f366102ac565b60015463a9059cbb60e01b5f52928514339093149290921691841491909116939260051b8301905b8184036103c757846100b7575f80fd5b909192938335600452813560245260208080926044908282805f808d355af191513d1517911616960194019291016103b756fea164736f6c6343000818000a"
        }
      ],
      "isFixedGasLimit": false
    },
    {
      "hash": "0x69bdc141571760039d2febd42063c15a836075d14b87c2235ad3321d6dc67320",
      "transactionType": "CALL",
      "contractName": "EtherDeckMk2",
      "contractAddress": "0xF3588d24E4d6C765b9dC41c3e594a38551F8F2c2",
      "function": null,
      "arguments": null,
      "transaction": {
        "type": "0x02",
        "from": "0xb47a9b6f062c33ed78630478dff9056687f840f2",
        "to": "0xf3588d24e4d6c765b9dc41c3e594a38551f8f2c2",
        "gas": "0x23028",
        "value": "0x0",
        "data": "0xd75755b1e54da2a64d37c16ecbb500da46dfdca19919dda56d46d37940a00184febf63970000000000000000000000000000000000000000000000000000000000000000000000000000000000000000000000000000000000000000000000000000006000000000000000000000000000000000000000000000000000000000000000da6080806040523460145760c190816100198239f35b5f80fdfe608060405260043610156010575f80fd5b5f3560e01c806355f574811460305763606ecca814602c575f80fd5b606d565b3460695760203660031901126069576004356001600160a01b038116810360695760015433036069575f80516020609583398151915255005b5f80fd5b346069575f3660031901126069575f8051602060958339815191525433810360695760015500fe1135fd56f406be55915358ca5fba26244b149720a5a3d009d6554ab509882baaa164736f6c6343000818000a000000000000",
        "nonce": "0xb7",
        "accessList": []
      },
      "additionalContracts": [
        {
          "transactionType": "CREATE2",
          "address": "0xe8b77A455F73a09720b788274FbbF1BfBbb6057D",
          "initCode": "0x6080806040523460145760c190816100198239f35b5f80fdfe608060405260043610156010575f80fd5b5f3560e01c806355f574811460305763606ecca814602c575f80fd5b606d565b3460695760203660031901126069576004356001600160a01b038116810360695760015433036069575f80516020609583398151915255005b5f80fd5b346069575f3660031901126069575f8051602060958339815191525433810360695760015500fe1135fd56f406be55915358ca5fba26244b149720a5a3d009d6554ab509882baaa164736f6c6343000818000a"
        }
      ],
      "isFixedGasLimit": false
    },
    {
      "hash": "0xa2cd4fa4f3f4b7a32d2faf5b41b53a8adec181de908ebd4cd9ab35241b8374cd",
      "transactionType": "CALL",
      "contractName": "EtherDeckMk2",
      "contractAddress": "0xF3588d24E4d6C765b9dC41c3e594a38551F8F2c2",
      "function": "runBatch(address[],uint256[],bytes[])",
      "arguments": [
        "[0x2E79E8C87F496cD2D1fe0E32Fcfe945660501db3, 0x2E79E8C87F496cD2D1fe0E32Fcfe945660501db3, 0x2E79E8C87F496cD2D1fe0E32Fcfe945660501db3, 0x2E79E8C87F496cD2D1fe0E32Fcfe945660501db3, 0x2E79E8C87F496cD2D1fe0E32Fcfe945660501db3, 0x2E79E8C87F496cD2D1fe0E32Fcfe945660501db3, 0x2E79E8C87F496cD2D1fe0E32Fcfe945660501db3, 0x2E79E8C87F496cD2D1fe0E32Fcfe945660501db3, 0x2E79E8C87F496cD2D1fe0E32Fcfe945660501db3]",
        "[0, 0, 0, 0, 0, 0, 0, 0, 0]",
        "[0x32434a2e000000000000000000000000a82706f72c8ca19c5acbf93cddc9534a28b0adf90000000000000000000000000000000000000000000000000000000000000040000000000000000000000000000000000000000000000000000000000000000842726962654d6f64000000000000000000000000000000000000000000000000, 0x32434a2e000000000000000000000000131e34c36a8a581e06207a40a552f54f569e65800000000000000000000000000000000000000000000000000000000000000040000000000000000000000000000000000000000000000000000000000000000a43726561746f724d6f6400000000000000000000000000000000000000000000, 0x32434a2e000000000000000000000000a001cda77c79da06b9f74d23c78ab9f68e2462ac00000000000000000000000000000000000000000000000000000000000000400000000000000000000000000000000000000000000000000000000000000008466c6173684d6f64000000000000000000000000000000000000000000000000, 0x32434a2e000000000000000000000000462b133d3e4c24c405dacff1aa562b92d0fb47fd0000000000000000000000000000000000000000000000000000000000000040000000000000000000000000000000000000000000000000000000000000000b466c61746c696e654d6f64000000000000000000000000000000000000000000, 0x32434a2e0000000000000000000000008b51c150d6899aa8efed1e24d2489426c47c56530000000000000000000000000000000000000000000000000000000000000040000000000000000000000000000000000000000000000000000000000000000b52656365697665724d6f64000000000000000000000000000000000000000000, 0x32434a2e00000000000000000000000009f473f09be2024b30c96d5c2d24a626ae053433000000000000000000000000000000000000000000000000000000000000004000000000000000000000000000000000000000000000000000000000000000095265766f6b654d6f640000000000000000000000000000000000000000000000, 0x32434a2e000000000000000000000000d82cf11f8de80ca8107e60fc188db1448421d4e00000000000000000000000000000000000000000000000000000000000000040000000000000000000000000000000000000000000000000000000000000000a53746f726167654d6f6400000000000000000000000000000000000000000000, 0x32434a2e00000000000000000000000021d9b7e84c8acf01898a41ad0c39ddc2b12261420000000000000000000000000000000000000000000000000000000000000040000000000000000000000000000000000000000000000000000000000000000b5472616e736665724d6f64000000000000000000000000000000000000000000, 0x32434a2e000000000000000000000000e8b77a455f73a09720b788274fbbf1bfbbb6057d0000000000000000000000000000000000000000000000000000000000000040000000000000000000000000000000000000000000000000000000000000001454776f537465705472616e736974696f6e4d6f64000000000000000000000000]"
      ],
      "transaction": {
        "type": "0x02",
        "from": "0xb47a9b6f062c33ed78630478dff9056687f840f2",
        "to": "0xf3588d24e4d6c765b9dc41c3e594a38551f8f2c2",
        "gas": "0xa7e07",
        "value": "0x0",
        "data": "0xd36322cd000000000000000000000000000000000000000000000000000000000000006000000000000000000000000000000000000000000000000000000000000001a000000000000000000000000000000000000000000000000000000000000002e000000000000000000000000000000000000000000000000000000000000000090000000000000000000000002e79e8c87f496cd2d1fe0e32fcfe945660501db30000000000000000000000002e79e8c87f496cd2d1fe0e32fcfe945660501db30000000000000000000000002e79e8c87f496cd2d1fe0e32fcfe945660501db30000000000000000000000002e79e8c87f496cd2d1fe0e32fcfe945660501db30000000000000000000000002e79e8c87f496cd2d1fe0e32fcfe945660501db30000000000000000000000002e79e8c87f496cd2d1fe0e32fcfe945660501db30000000000000000000000002e79e8c87f496cd2d1fe0e32fcfe945660501db30000000000000000000000002e79e8c87f496cd2d1fe0e32fcfe945660501db30000000000000000000000002e79e8c87f496cd2d1fe0e32fcfe945660501db300000000000000000000000000000000000000000000000000000000000000090000000000000000000000000000000000000000000000000000000000000000000000000000000000000000000000000000000000000000000000000000000000000000000000000000000000000000000000000000000000000000000000000000000000000000000000000000000000000000000000000000000000000000000000000000000000000000000000000000000000000000000000000000000000000000000000000000000000000000000000000000000000000000000000000000000000000000000000000000000000000000000000000000000000000000000000000000000000000000000000000000000000000000000000000000000000000000000000000000000000000000000000000000000000000000000000000000000000000000000000000000000000000000000000000000000000000009000000000000000000000000000000000000000000000000000000000000012000000000000000000000000000000000000000000000000000000000000001e000000000000000000000000000000000000000000000000000000000000002a00000000000000000000000000000000000000000000000000000000000000360000000000000000000000000000000000000000000000000000000000000042000000000000000000000000000000000000000000000000000000000000004e000000000000000000000000000000000000000000000000000000000000005a000000000000000000000000000000000000000000000000000000000000006600000000000000000000000000000000000000000000000000000000000000720000000000000000000000000000000000000000000000000000000000000008432434a2e000000000000000000000000a82706f72c8ca19c5acbf93cddc9534a28b0adf90000000000000000000000000000000000000000000000000000000000000040000000000000000000000000000000000000000000000000000000000000000842726962654d6f6400000000000000000000000000000000000000000000000000000000000000000000000000000000000000000000000000000000000000000000000000000000000000000000000000000000000000000000008432434a2e000000000000000000000000131e34c36a8a581e06207a40a552f54f569e65800000000000000000000000000000000000000000000000000000000000000040000000000000000000000000000000000000000000000000000000000000000a43726561746f724d6f640000000000000000000000000000000000000000000000000000000000000000000000000000000000000000000000000000000000000000000000000000000000000000000000000000000000000000008432434a2e000000000000000000000000a001cda77c79da06b9f74d23c78ab9f68e2462ac00000000000000000000000000000000000000000000000000000000000000400000000000000000000000000000000000000000000000000000000000000008466c6173684d6f6400000000000000000000000000000000000000000000000000000000000000000000000000000000000000000000000000000000000000000000000000000000000000000000000000000000000000000000008432434a2e000000000000000000000000462b133d3e4c24c405dacff1aa562b92d0fb47fd0000000000000000000000000000000000000000000000000000000000000040000000000000000000000000000000000000000000000000000000000000000b466c61746c696e654d6f6400000000000000000000000000000000000000000000000000000000000000000000000000000000000000000000000000000000000000000000000000000000000000000000000000000000000000008432434a2e0000000000000000000000008b51c150d6899aa8efed1e24d2489426c47c56530000000000000000000000000000000000000000000000000000000000000040000000000000000000000000000000000000000000000000000000000000000b52656365697665724d6f6400000000000000000000000000000000000000000000000000000000000000000000000000000000000000000000000000000000000000000000000000000000000000000000000000000000000000008432434a2e00000000000000000000000009f473f09be2024b30c96d5c2d24a626ae053433000000000000000000000000000000000000000000000000000000000000004000000000000000000000000000000000000000000000000000000000000000095265766f6b654d6f64000000000000000000000000000000000000000000000000000000000000000000000000000000000000000000000000000000000000000000000000000000000000000000000000000000000000000000008432434a2e000000000000000000000000d82cf11f8de80ca8107e60fc188db1448421d4e00000000000000000000000000000000000000000000000000000000000000040000000000000000000000000000000000000000000000000000000000000000a53746f726167654d6f640000000000000000000000000000000000000000000000000000000000000000000000000000000000000000000000000000000000000000000000000000000000000000000000000000000000000000008432434a2e00000000000000000000000021d9b7e84c8acf01898a41ad0c39ddc2b12261420000000000000000000000000000000000000000000000000000000000000040000000000000000000000000000000000000000000000000000000000000000b5472616e736665724d6f6400000000000000000000000000000000000000000000000000000000000000000000000000000000000000000000000000000000000000000000000000000000000000000000000000000000000000008432434a2e000000000000000000000000e8b77a455f73a09720b788274fbbf1bfbbb6057d0000000000000000000000000000000000000000000000000000000000000040000000000000000000000000000000000000000000000000000000000000001454776f537465705472616e736974696f6e4d6f6400000000000000000000000000000000000000000000000000000000000000000000000000000000",
        "nonce": "0xb8",
        "accessList": []
      },
      "additionalContracts": [],
      "isFixedGasLimit": false
    },
    {
      "hash": "0x446e65e4d33b5d47362364165629434e76a754700240d3e309a538e68774d3c5",
      "transactionType": "CALL",
      "contractName": "EtherDeckMk2",
      "contractAddress": "0xF3588d24E4d6C765b9dC41c3e594a38551F8F2c2",
      "function": "setDispatch(bytes4,address)",
      "arguments": [
        "0xd75755b100000000000000000000000000000000000000000000000000000000",
        "0x0000000000000000000000000000000000000000"
      ],
      "transaction": {
        "type": "0x02",
        "from": "0xb47a9b6f062c33ed78630478dff9056687f840f2",
        "to": "0xf3588d24e4d6c765b9dc41c3e594a38551f8f2c2",
        "gas": "0x8a1a",
        "value": "0x0",
        "data": "0xc08eaf28d75755b1000000000000000000000000000000000000000000000000000000000000000000000000000000000000000000000000000000000000000000000000",
        "nonce": "0xb9",
        "accessList": []
      },
      "additionalContracts": [],
      "isFixedGasLimit": false
    }
  ],
  "receipts": [
    {
      "transactionHash": "0x67d40d19afec7e19fa2556b9651e345432f068ba9f574ef10a5305ca8496f9e4",
      "transactionIndex": "0x16",
      "blockHash": "0xe8c6802d8a8faab85acd5639e0a834908e1d6cd0ea7d49b258af505fdc2114cc",
      "blockNumber": "0x1261631",
      "from": "0xb47A9B6F062c33ED78630478dFf9056687F840f2",
      "to": null,
      "cumulativeGasUsed": "0x2b4cbe",
      "gasUsed": "0x55207",
      "contractAddress": "0xc691129F7235863c6b19d0Ac005142688a4D8502",
      "logs": [],
      "status": "0x1",
      "logsBloom": "0x00000000000000000000000000000000000000000000000000000000000000000000000000000000000000000000000000000000000000000000000000000000000000000000000000000000000000000000000000000000000000000000000000000000000000000000000000000000000000000000000000000000000000000000000000000000000000000000000000000000000000000000000000000000000000000000000000000000000000000000000000000000000000000000000000000000000000000000000000000000000000000000000000000000000000000000000000000000000000000000000000000000000000000000000000000000",
      "type": "0x2",
      "effectiveGasPrice": "0x921f7fd39"
    },
    {
      "transactionHash": "0x679e1e54d44888212bec14bd8ddccc9f5301b463cc339ffc4c650d484620da64",
      "transactionIndex": "0x19",
      "blockHash": "0xfbdef88c08aca081d92ffcd63036e22683a37fcc48aec15c906653d40f15fd0a",
      "blockNumber": "0x1261632",
      "from": "0xb47A9B6F062c33ED78630478dFf9056687F840f2",
      "to": "0xc691129F7235863c6b19d0Ac005142688a4D8502",
      "cumulativeGasUsed": "0x2b789e",
      "gasUsed": "0x410fe",
      "contractAddress": null,
      "logs": [
        {
          "address": "0xc691129F7235863c6b19d0Ac005142688a4D8502",
          "topics": [
            "0x09e48df7857bd0c1e0d31bb8a85d42cf1874817895f171c917f6ee2cea73ec20",
            "0x000000000000000000000000b47a9b6f062c33ed78630478dff9056687f840f2",
            "0x000000000000000000000000f3588d24e4d6c765b9dc41c3e594a38551f8f2c2"
          ],
          "data": "0x",
          "blockHash": "0xfbdef88c08aca081d92ffcd63036e22683a37fcc48aec15c906653d40f15fd0a",
          "blockNumber": "0x1261632",
          "transactionHash": "0x679e1e54d44888212bec14bd8ddccc9f5301b463cc339ffc4c650d484620da64",
          "transactionIndex": "0x19",
          "logIndex": "0x49",
          "removed": false
        }
      ],
      "status": "0x1",
      "logsBloom": "0x00000000000000000000000000100000000000000000000000000000000000000000000000000000000000000000000000000008000000000000001000000000000000000000000000000000000000000000000000000000000000000000000000000000000000000000000000000000000020010000000000000000000000000000000000000080000000000000000000000000000000000000000000000100200000000000000000100000000000000000000000000000000000000000000000000000000000000000000000000000000000001000000000000000000000000000400000000000000000000000000000000000000000000000000002000000",
      "type": "0x2",
      "effectiveGasPrice": "0x8d64a4b00"
    },
    {
      "transactionHash": "0xb9bfb40c334b0311705d2319be49500257f12d4eb5c90672c041f952af60d72e",
      "transactionIndex": "0x1a",
      "blockHash": "0xfbdef88c08aca081d92ffcd63036e22683a37fcc48aec15c906653d40f15fd0a",
      "blockNumber": "0x1261632",
      "from": "0xb47A9B6F062c33ED78630478dFf9056687F840f2",
      "to": null,
      "cumulativeGasUsed": "0x2d8611",
      "gasUsed": "0x20d73",
      "contractAddress": "0xde2AC71F9c9d86487935fFefdD84d9c5FE97102a",
      "logs": [],
      "status": "0x1",
      "logsBloom": "0x00000000000000000000000000000000000000000000000000000000000000000000000000000000000000000000000000000000000000000000000000000000000000000000000000000000000000000000000000000000000000000000000000000000000000000000000000000000000000000000000000000000000000000000000000000000000000000000000000000000000000000000000000000000000000000000000000000000000000000000000000000000000000000000000000000000000000000000000000000000000000000000000000000000000000000000000000000000000000000000000000000000000000000000000000000000",
      "type": "0x2",
      "effectiveGasPrice": "0x8d64a4b00"
    },
    {
      "transactionHash": "0x3fb2b71215fd5b8e2ddb4fb9197b609907a25ccb5acd71ce6613b8c9f02879ce",
      "transactionIndex": "0x1b",
      "blockHash": "0xfbdef88c08aca081d92ffcd63036e22683a37fcc48aec15c906653d40f15fd0a",
      "blockNumber": "0x1261632",
      "from": "0xb47A9B6F062c33ED78630478dFf9056687F840f2",
      "to": "0xF3588d24E4d6C765b9dC41c3e594a38551F8F2c2",
      "cumulativeGasUsed": "0x2e408a",
      "gasUsed": "0xba79",
      "contractAddress": null,
      "logs": [
        {
          "address": "0xF3588d24E4d6C765b9dC41c3e594a38551F8F2c2",
          "topics": [
            "0x2c0b629fc2b386c229783b88b245e8730c1397b78e4dd4a43cd7aafdf1b39f12",
            "0xd75755b100000000000000000000000000000000000000000000000000000000",
            "0x000000000000000000000000de2ac71f9c9d86487935ffefdd84d9c5fe97102a"
          ],
          "data": "0x",
          "blockHash": "0xfbdef88c08aca081d92ffcd63036e22683a37fcc48aec15c906653d40f15fd0a",
          "blockNumber": "0x1261632",
          "transactionHash": "0x3fb2b71215fd5b8e2ddb4fb9197b609907a25ccb5acd71ce6613b8c9f02879ce",
          "transactionIndex": "0x1b",
          "logIndex": "0x4a",
          "removed": false
        }
      ],
      "status": "0x1",
      "logsBloom": "0x00000000000000001000000000200000020000000000000000000000000000000000000000000000200000000000000000000000000020000000004000000000000000000000000000000000000008000000000000000000000000000000000000000000000000000000000000000000000000000000000000000000000000000400000000000000000000000001000002000000000000000000000000000000000000000000000000000000000000000000000000000000000000000000000000000004000000000000000000020000000000000000000000000000000000000000000000000000000000000000000000000000000000000000000000000000",
      "type": "0x2",
      "effectiveGasPrice": "0x8d64a4b00"
    },
    {
      "transactionHash": "0x7581d0c5ff43e3d740db82e15fc0a22e50a8d6ca9c3626944dfe46bce12e49b9",
      "transactionIndex": "0x1c",
      "blockHash": "0xfbdef88c08aca081d92ffcd63036e22683a37fcc48aec15c906653d40f15fd0a",
      "blockNumber": "0x1261632",
      "from": "0xb47A9B6F062c33ED78630478dFf9056687F840f2",
      "to": "0xF3588d24E4d6C765b9dC41c3e594a38551F8F2c2",
      "cumulativeGasUsed": "0x33078f",
      "gasUsed": "0x4c705",
      "contractAddress": null,
      "logs": [],
      "status": "0x1",
      "logsBloom": "0x00000000000000000000000000000000000000000000000000000000000000000000000000000000000000000000000000000000000000000000000000000000000000000000000000000000000000000000000000000000000000000000000000000000000000000000000000000000000000000000000000000000000000000000000000000000000000000000000000000000000000000000000000000000000000000000000000000000000000000000000000000000000000000000000000000000000000000000000000000000000000000000000000000000000000000000000000000000000000000000000000000000000000000000000000000000",
      "type": "0x2",
      "effectiveGasPrice": "0x8d64a4b00"
    },
    {
      "transactionHash": "0x337c1f33e25363d35e848ead2402cb70b02f41c560de908ea1da19d2de76d2cc",
      "transactionIndex": "0x1d",
      "blockHash": "0xfbdef88c08aca081d92ffcd63036e22683a37fcc48aec15c906653d40f15fd0a",
      "blockNumber": "0x1261632",
      "from": "0xb47A9B6F062c33ED78630478dFf9056687F840f2",
      "to": "0xF3588d24E4d6C765b9dC41c3e594a38551F8F2c2",
      "cumulativeGasUsed": "0x35a979",
      "gasUsed": "0x2a1ea",
      "contractAddress": null,
      "logs": [],
      "status": "0x1",
      "logsBloom": "0x00000000000000000000000000000000000000000000000000000000000000000000000000000000000000000000000000000000000000000000000000000000000000000000000000000000000000000000000000000000000000000000000000000000000000000000000000000000000000000000000000000000000000000000000000000000000000000000000000000000000000000000000000000000000000000000000000000000000000000000000000000000000000000000000000000000000000000000000000000000000000000000000000000000000000000000000000000000000000000000000000000000000000000000000000000000",
      "type": "0x2",
      "effectiveGasPrice": "0x8d64a4b00"
    },
    {
      "transactionHash": "0xe385ce8b626c0178429cb0ba8c2cbd1aeab0c1e42f4f4f33e87a89fb9e130f1b",
      "transactionIndex": "0x1e",
      "blockHash": "0xfbdef88c08aca081d92ffcd63036e22683a37fcc48aec15c906653d40f15fd0a",
      "blockNumber": "0x1261632",
      "from": "0xb47A9B6F062c33ED78630478dFf9056687F840f2",
      "to": "0xF3588d24E4d6C765b9dC41c3e594a38551F8F2c2",
      "cumulativeGasUsed": "0x37d967",
      "gasUsed": "0x22fee",
      "contractAddress": null,
      "logs": [],
      "status": "0x1",
      "logsBloom": "0x00000000000000000000000000000000000000000000000000000000000000000000000000000000000000000000000000000000000000000000000000000000000000000000000000000000000000000000000000000000000000000000000000000000000000000000000000000000000000000000000000000000000000000000000000000000000000000000000000000000000000000000000000000000000000000000000000000000000000000000000000000000000000000000000000000000000000000000000000000000000000000000000000000000000000000000000000000000000000000000000000000000000000000000000000000000",
      "type": "0x2",
      "effectiveGasPrice": "0x8d64a4b00"
    },
    {
      "transactionHash": "0xc11b49eb924ecf72b6219131c55ccbb9f93c358b75ca9d633822063cd8b73c1a",
      "transactionIndex": "0x1f",
      "blockHash": "0xfbdef88c08aca081d92ffcd63036e22683a37fcc48aec15c906653d40f15fd0a",
      "blockNumber": "0x1261632",
      "from": "0xb47A9B6F062c33ED78630478dFf9056687F840f2",
      "to": "0xF3588d24E4d6C765b9dC41c3e594a38551F8F2c2",
      "cumulativeGasUsed": "0x3b4ba8",
      "gasUsed": "0x37241",
      "contractAddress": null,
      "logs": [],
      "status": "0x1",
      "logsBloom": "0x00000000000000000000000000000000000000000000000000000000000000000000000000000000000000000000000000000000000000000000000000000000000000000000000000000000000000000000000000000000000000000000000000000000000000000000000000000000000000000000000000000000000000000000000000000000000000000000000000000000000000000000000000000000000000000000000000000000000000000000000000000000000000000000000000000000000000000000000000000000000000000000000000000000000000000000000000000000000000000000000000000000000000000000000000000000",
      "type": "0x2",
      "effectiveGasPrice": "0x8d64a4b00"
    },
    {
      "transactionHash": "0xa1c61360dc8bf1afec0bc22ff933c474ecac661acc00b98d8dd855ab3fac0401",
      "transactionIndex": "0x20",
      "blockHash": "0xfbdef88c08aca081d92ffcd63036e22683a37fcc48aec15c906653d40f15fd0a",
      "blockNumber": "0x1261632",
      "from": "0xb47A9B6F062c33ED78630478dFf9056687F840f2",
      "to": "0xF3588d24E4d6C765b9dC41c3e594a38551F8F2c2",
      "cumulativeGasUsed": "0x3d6088",
      "gasUsed": "0x214e0",
      "contractAddress": null,
      "logs": [],
      "status": "0x1",
      "logsBloom": "0x00000000000000000000000000000000000000000000000000000000000000000000000000000000000000000000000000000000000000000000000000000000000000000000000000000000000000000000000000000000000000000000000000000000000000000000000000000000000000000000000000000000000000000000000000000000000000000000000000000000000000000000000000000000000000000000000000000000000000000000000000000000000000000000000000000000000000000000000000000000000000000000000000000000000000000000000000000000000000000000000000000000000000000000000000000000",
      "type": "0x2",
      "effectiveGasPrice": "0x8d64a4b00"
    },
    {
      "transactionHash": "0x8ab9a699ccc6a8cbebf8fb37425d939f6b2e5bf17f02ff8ccb11539787ba5c41",
      "transactionIndex": "0x21",
      "blockHash": "0xfbdef88c08aca081d92ffcd63036e22683a37fcc48aec15c906653d40f15fd0a",
      "blockNumber": "0x1261632",
      "from": "0xb47A9B6F062c33ED78630478dFf9056687F840f2",
      "to": "0xF3588d24E4d6C765b9dC41c3e594a38551F8F2c2",
      "cumulativeGasUsed": "0x3e7399",
      "gasUsed": "0x11311",
      "contractAddress": null,
      "logs": [],
      "status": "0x1",
      "logsBloom": "0x00000000000000000000000000000000000000000000000000000000000000000000000000000000000000000000000000000000000000000000000000000000000000000000000000000000000000000000000000000000000000000000000000000000000000000000000000000000000000000000000000000000000000000000000000000000000000000000000000000000000000000000000000000000000000000000000000000000000000000000000000000000000000000000000000000000000000000000000000000000000000000000000000000000000000000000000000000000000000000000000000000000000000000000000000000000",
      "type": "0x2",
      "effectiveGasPrice": "0x8d64a4b00"
    },
    {
      "transactionHash": "0x264d3667a958f67c6bbfb8646c6ff1fbad96c8135f90f785cafb9db36e7bf4f6",
      "transactionIndex": "0x22",
      "blockHash": "0xfbdef88c08aca081d92ffcd63036e22683a37fcc48aec15c906653d40f15fd0a",
      "blockNumber": "0x1261632",
      "from": "0xb47A9B6F062c33ED78630478dFf9056687F840f2",
      "to": "0xF3588d24E4d6C765b9dC41c3e594a38551F8F2c2",
      "cumulativeGasUsed": "0x423889",
      "gasUsed": "0x3c4f0",
      "contractAddress": null,
      "logs": [],
      "status": "0x1",
      "logsBloom": "0x00000000000000000000000000000000000000000000000000000000000000000000000000000000000000000000000000000000000000000000000000000000000000000000000000000000000000000000000000000000000000000000000000000000000000000000000000000000000000000000000000000000000000000000000000000000000000000000000000000000000000000000000000000000000000000000000000000000000000000000000000000000000000000000000000000000000000000000000000000000000000000000000000000000000000000000000000000000000000000000000000000000000000000000000000000000",
      "type": "0x2",
      "effectiveGasPrice": "0x8d64a4b00"
    },
    {
      "transactionHash": "0x1b42e125ff76b3368369235e28a13b5683177dae5d615a2567bf271e1ba0f467",
      "transactionIndex": "0x23",
      "blockHash": "0xfbdef88c08aca081d92ffcd63036e22683a37fcc48aec15c906653d40f15fd0a",
      "blockNumber": "0x1261632",
      "from": "0xb47A9B6F062c33ED78630478dFf9056687F840f2",
      "to": "0xF3588d24E4d6C765b9dC41c3e594a38551F8F2c2",
      "cumulativeGasUsed": "0x444b91",
      "gasUsed": "0x21308",
      "contractAddress": null,
      "logs": [],
      "status": "0x1",
      "logsBloom": "0x00000000000000000000000000000000000000000000000000000000000000000000000000000000000000000000000000000000000000000000000000000000000000000000000000000000000000000000000000000000000000000000000000000000000000000000000000000000000000000000000000000000000000000000000000000000000000000000000000000000000000000000000000000000000000000000000000000000000000000000000000000000000000000000000000000000000000000000000000000000000000000000000000000000000000000000000000000000000000000000000000000000000000000000000000000000",
      "type": "0x2",
      "effectiveGasPrice": "0x8d64a4b00"
    },
    {
      "transactionHash": "0xfe61ab0a851dbbd82e52484da376c9c8accf2f66296108fa4cab4e6636a30368",
      "transactionIndex": "0x24",
      "blockHash": "0xfbdef88c08aca081d92ffcd63036e22683a37fcc48aec15c906653d40f15fd0a",
      "blockNumber": "0x1261632",
      "from": "0xb47A9B6F062c33ED78630478dFf9056687F840f2",
      "to": "0xF3588d24E4d6C765b9dC41c3e594a38551F8F2c2",
      "cumulativeGasUsed": "0x48a57f",
      "gasUsed": "0x459ee",
      "contractAddress": null,
      "logs": [],
      "status": "0x1",
      "logsBloom": "0x00000000000000000000000000000000000000000000000000000000000000000000000000000000000000000000000000000000000000000000000000000000000000000000000000000000000000000000000000000000000000000000000000000000000000000000000000000000000000000000000000000000000000000000000000000000000000000000000000000000000000000000000000000000000000000000000000000000000000000000000000000000000000000000000000000000000000000000000000000000000000000000000000000000000000000000000000000000000000000000000000000000000000000000000000000000",
      "type": "0x2",
      "effectiveGasPrice": "0x8d64a4b00"
    },
    {
      "transactionHash": "0x69bdc141571760039d2febd42063c15a836075d14b87c2235ad3321d6dc67320",
      "transactionIndex": "0x25",
      "blockHash": "0xfbdef88c08aca081d92ffcd63036e22683a37fcc48aec15c906653d40f15fd0a",
      "blockNumber": "0x1261632",
      "from": "0xb47A9B6F062c33ED78630478dFf9056687F840f2",
      "to": "0xF3588d24E4d6C765b9dC41c3e594a38551F8F2c2",
      "cumulativeGasUsed": "0x4a3b0b",
      "gasUsed": "0x1958c",
      "contractAddress": null,
      "logs": [],
      "status": "0x1",
      "logsBloom": "0x00000000000000000000000000000000000000000000000000000000000000000000000000000000000000000000000000000000000000000000000000000000000000000000000000000000000000000000000000000000000000000000000000000000000000000000000000000000000000000000000000000000000000000000000000000000000000000000000000000000000000000000000000000000000000000000000000000000000000000000000000000000000000000000000000000000000000000000000000000000000000000000000000000000000000000000000000000000000000000000000000000000000000000000000000000000",
      "type": "0x2",
      "effectiveGasPrice": "0x8d64a4b00"
    },
    {
      "transactionHash": "0xa2cd4fa4f3f4b7a32d2faf5b41b53a8adec181de908ebd4cd9ab35241b8374cd",
      "transactionIndex": "0x26",
      "blockHash": "0xfbdef88c08aca081d92ffcd63036e22683a37fcc48aec15c906653d40f15fd0a",
      "blockNumber": "0x1261632",
      "from": "0xb47A9B6F062c33ED78630478dFf9056687F840f2",
      "to": "0xF3588d24E4d6C765b9dC41c3e594a38551F8F2c2",
      "cumulativeGasUsed": "0x5167a5",
      "gasUsed": "0x72c9a",
      "contractAddress": null,
      "logs": [
        {
          "address": "0x2E79E8C87F496cD2D1fe0E32Fcfe945660501db3",
          "topics": [
            "0x53847476bca505044595421c78566864f28f19c3f4597502069d145bbe5a62b7",
            "0x000000000000000000000000a82706f72c8ca19c5acbf93cddc9534a28b0adf9"
          ],
          "data": "0x0000000000000000000000000000000000000000000000000000000000000020000000000000000000000000000000000000000000000000000000000000000842726962654d6f64000000000000000000000000000000000000000000000000",
          "blockHash": "0xfbdef88c08aca081d92ffcd63036e22683a37fcc48aec15c906653d40f15fd0a",
          "blockNumber": "0x1261632",
          "transactionHash": "0xa2cd4fa4f3f4b7a32d2faf5b41b53a8adec181de908ebd4cd9ab35241b8374cd",
          "transactionIndex": "0x26",
          "logIndex": "0x4b",
          "removed": false
        },
        {
          "address": "0x2E79E8C87F496cD2D1fe0E32Fcfe945660501db3",
          "topics": [
            "0x53847476bca505044595421c78566864f28f19c3f4597502069d145bbe5a62b7",
            "0x000000000000000000000000131e34c36a8a581e06207a40a552f54f569e6580"
          ],
          "data": "0x0000000000000000000000000000000000000000000000000000000000000020000000000000000000000000000000000000000000000000000000000000000a43726561746f724d6f6400000000000000000000000000000000000000000000",
          "blockHash": "0xfbdef88c08aca081d92ffcd63036e22683a37fcc48aec15c906653d40f15fd0a",
          "blockNumber": "0x1261632",
          "transactionHash": "0xa2cd4fa4f3f4b7a32d2faf5b41b53a8adec181de908ebd4cd9ab35241b8374cd",
          "transactionIndex": "0x26",
          "logIndex": "0x4c",
          "removed": false
        },
        {
          "address": "0x2E79E8C87F496cD2D1fe0E32Fcfe945660501db3",
          "topics": [
            "0x53847476bca505044595421c78566864f28f19c3f4597502069d145bbe5a62b7",
            "0x000000000000000000000000a001cda77c79da06b9f74d23c78ab9f68e2462ac"
          ],
          "data": "0x00000000000000000000000000000000000000000000000000000000000000200000000000000000000000000000000000000000000000000000000000000008466c6173684d6f64000000000000000000000000000000000000000000000000",
          "blockHash": "0xfbdef88c08aca081d92ffcd63036e22683a37fcc48aec15c906653d40f15fd0a",
          "blockNumber": "0x1261632",
          "transactionHash": "0xa2cd4fa4f3f4b7a32d2faf5b41b53a8adec181de908ebd4cd9ab35241b8374cd",
          "transactionIndex": "0x26",
          "logIndex": "0x4d",
          "removed": false
        },
        {
          "address": "0x2E79E8C87F496cD2D1fe0E32Fcfe945660501db3",
          "topics": [
            "0x53847476bca505044595421c78566864f28f19c3f4597502069d145bbe5a62b7",
            "0x000000000000000000000000462b133d3e4c24c405dacff1aa562b92d0fb47fd"
          ],
          "data": "0x0000000000000000000000000000000000000000000000000000000000000020000000000000000000000000000000000000000000000000000000000000000b466c61746c696e654d6f64000000000000000000000000000000000000000000",
          "blockHash": "0xfbdef88c08aca081d92ffcd63036e22683a37fcc48aec15c906653d40f15fd0a",
          "blockNumber": "0x1261632",
          "transactionHash": "0xa2cd4fa4f3f4b7a32d2faf5b41b53a8adec181de908ebd4cd9ab35241b8374cd",
          "transactionIndex": "0x26",
          "logIndex": "0x4e",
          "removed": false
        },
        {
          "address": "0x2E79E8C87F496cD2D1fe0E32Fcfe945660501db3",
          "topics": [
            "0x53847476bca505044595421c78566864f28f19c3f4597502069d145bbe5a62b7",
            "0x0000000000000000000000008b51c150d6899aa8efed1e24d2489426c47c5653"
          ],
          "data": "0x0000000000000000000000000000000000000000000000000000000000000020000000000000000000000000000000000000000000000000000000000000000b52656365697665724d6f64000000000000000000000000000000000000000000",
          "blockHash": "0xfbdef88c08aca081d92ffcd63036e22683a37fcc48aec15c906653d40f15fd0a",
          "blockNumber": "0x1261632",
          "transactionHash": "0xa2cd4fa4f3f4b7a32d2faf5b41b53a8adec181de908ebd4cd9ab35241b8374cd",
          "transactionIndex": "0x26",
          "logIndex": "0x4f",
          "removed": false
        },
        {
          "address": "0x2E79E8C87F496cD2D1fe0E32Fcfe945660501db3",
          "topics": [
            "0x53847476bca505044595421c78566864f28f19c3f4597502069d145bbe5a62b7",
            "0x00000000000000000000000009f473f09be2024b30c96d5c2d24a626ae053433"
          ],
          "data": "0x000000000000000000000000000000000000000000000000000000000000002000000000000000000000000000000000000000000000000000000000000000095265766f6b654d6f640000000000000000000000000000000000000000000000",
          "blockHash": "0xfbdef88c08aca081d92ffcd63036e22683a37fcc48aec15c906653d40f15fd0a",
          "blockNumber": "0x1261632",
          "transactionHash": "0xa2cd4fa4f3f4b7a32d2faf5b41b53a8adec181de908ebd4cd9ab35241b8374cd",
          "transactionIndex": "0x26",
          "logIndex": "0x50",
          "removed": false
        },
        {
          "address": "0x2E79E8C87F496cD2D1fe0E32Fcfe945660501db3",
          "topics": [
            "0x53847476bca505044595421c78566864f28f19c3f4597502069d145bbe5a62b7",
            "0x000000000000000000000000d82cf11f8de80ca8107e60fc188db1448421d4e0"
          ],
          "data": "0x0000000000000000000000000000000000000000000000000000000000000020000000000000000000000000000000000000000000000000000000000000000a53746f726167654d6f6400000000000000000000000000000000000000000000",
          "blockHash": "0xfbdef88c08aca081d92ffcd63036e22683a37fcc48aec15c906653d40f15fd0a",
          "blockNumber": "0x1261632",
          "transactionHash": "0xa2cd4fa4f3f4b7a32d2faf5b41b53a8adec181de908ebd4cd9ab35241b8374cd",
          "transactionIndex": "0x26",
          "logIndex": "0x51",
          "removed": false
        },
        {
          "address": "0x2E79E8C87F496cD2D1fe0E32Fcfe945660501db3",
          "topics": [
            "0x53847476bca505044595421c78566864f28f19c3f4597502069d145bbe5a62b7",
            "0x00000000000000000000000021d9b7e84c8acf01898a41ad0c39ddc2b1226142"
          ],
          "data": "0x0000000000000000000000000000000000000000000000000000000000000020000000000000000000000000000000000000000000000000000000000000000b5472616e736665724d6f64000000000000000000000000000000000000000000",
          "blockHash": "0xfbdef88c08aca081d92ffcd63036e22683a37fcc48aec15c906653d40f15fd0a",
          "blockNumber": "0x1261632",
          "transactionHash": "0xa2cd4fa4f3f4b7a32d2faf5b41b53a8adec181de908ebd4cd9ab35241b8374cd",
          "transactionIndex": "0x26",
          "logIndex": "0x52",
          "removed": false
        },
        {
          "address": "0x2E79E8C87F496cD2D1fe0E32Fcfe945660501db3",
          "topics": [
            "0x53847476bca505044595421c78566864f28f19c3f4597502069d145bbe5a62b7",
            "0x000000000000000000000000e8b77a455f73a09720b788274fbbf1bfbbb6057d"
          ],
          "data": "0x0000000000000000000000000000000000000000000000000000000000000020000000000000000000000000000000000000000000000000000000000000001454776f537465705472616e736974696f6e4d6f64000000000000000000000000",
          "blockHash": "0xfbdef88c08aca081d92ffcd63036e22683a37fcc48aec15c906653d40f15fd0a",
          "blockNumber": "0x1261632",
          "transactionHash": "0xa2cd4fa4f3f4b7a32d2faf5b41b53a8adec181de908ebd4cd9ab35241b8374cd",
          "transactionIndex": "0x26",
          "logIndex": "0x53",
          "removed": false
        }
      ],
      "status": "0x1",
      "logsBloom": "0x00008000000000000000000010000440000000000020040000000000000000002000000000000000000000000000200000000000800000000000000000220000000000000000000000000000000000000000000000000000000000000000000000004000000000000000006000000000000000002000000000000000002000000000000000008004000000000000000000000000010000000000000040000000000000000000000000000000000000000000000000000000000008000000800000024000000080000000000000000080020000000000000100080000210400000000000000000000000000000000000000000000000000000000000000000080",
      "type": "0x2",
      "effectiveGasPrice": "0x8d64a4b00"
    },
    {
      "transactionHash": "0x446e65e4d33b5d47362364165629434e76a754700240d3e309a538e68774d3c5",
      "transactionIndex": "0x27",
      "blockHash": "0xfbdef88c08aca081d92ffcd63036e22683a37fcc48aec15c906653d40f15fd0a",
      "blockNumber": "0x1261632",
      "from": "0xb47A9B6F062c33ED78630478dFf9056687F840f2",
      "to": "0xF3588d24E4d6C765b9dC41c3e594a38551F8F2c2",
      "cumulativeGasUsed": "0x51cba2",
      "gasUsed": "0x63fd",
      "contractAddress": null,
      "logs": [
        {
          "address": "0xF3588d24E4d6C765b9dC41c3e594a38551F8F2c2",
          "topics": [
            "0x2c0b629fc2b386c229783b88b245e8730c1397b78e4dd4a43cd7aafdf1b39f12",
            "0xd75755b100000000000000000000000000000000000000000000000000000000",
            "0x0000000000000000000000000000000000000000000000000000000000000000"
          ],
          "data": "0x",
          "blockHash": "0xfbdef88c08aca081d92ffcd63036e22683a37fcc48aec15c906653d40f15fd0a",
          "blockNumber": "0x1261632",
          "transactionHash": "0x446e65e4d33b5d47362364165629434e76a754700240d3e309a538e68774d3c5",
          "transactionIndex": "0x27",
          "logIndex": "0x54",
          "removed": false
        }
      ],
      "status": "0x1",
      "logsBloom": "0x00000000000000001000000000200000020000000000000000000000000000000000000000000000000000000000000000000000000020000000000000000000000000000000000000000000000008000000000000000000000000000000000000000000020000000000000000000800000000000000000000000000000000000400000000000000000000000001000002000000000000000000000000000000000000000000000000000000000000000000000000000000000000000000000000000000000000000000000000020000000000000000000000000000000020000000000000000000000000000000000000000000000000000000000000000000",
      "type": "0x2",
      "effectiveGasPrice": "0x8d64a4b00"
    }
  ],
  "libraries": [],
  "pending": [],
  "returns": {},
  "timestamp": 1708484885,
  "chain": 1,
  "multi": false,
  "commit": "51490c5"
}